:020000040000fa
:080000000002040000000000f2
:020000040000fa
:04000800b60300003b
:020000040000fa
:04000c00c803000025
:020000040000fa
:04001000e003000009
:020000040000fa
:04001400be03000027
:020000040000fa
:04001800d003000011
:020000040000fa
:04001c00d803000005
:020000040000fa
:04002000e8030000f1
:020000040000fa
:040024009e04000036
:020000040000fa
:040028009e04000032
:020000040000fa
:04002c009e0400002e
:020000040000fa
:040030009e0400002a
:020000040000fa
:040034000a040000ba
:020000040000fa
:040038007a03000047
:020000040000fa
:04003c009e0400001e
:020000040000fa
:040040009e0400001a
:020000040000fa
:040044009e04000016
:020000040000fa
:040048009e04000012
:020000040000fa
:04004c009e0400000e
:020000040000fa
:040050009e0400000a
:020000040000fa
:040054004004000064
:020000040000fa
:04005800660400003a
:020000040000fa
:04005c009e040000fe
:020000040000fa
:040060009803000001
:020000040000fa
:040064009e040000f6
:020000040000fa
:040068009e040000f2
:020000040000fa
:04006c009e040000ee
:020000040000fa
:040070009e040000ea
:020000040000fa
:040074009e040000e6
:020000040000fa
:040078009e040000e2
:020000040000fa
:04007c009e040000de
:020000040000fa
:040080009e040000da
:020000040000fa
:040084009e040000d6
:020000040000fa
:040088009e040000d2
:020000040000fa
:04008c009e040000ce
:020000040000fa
:040090009e040000ca
:020000040000fa
:040094009e040000c6
:020000040000fa
:040098009e040000c2
:020000040000fa
:04009c009e040000be
:020000040000fa
:0400a0009e040000ba
:020000040000fa
:0400a4009e040000b6
:020000040000fa
:0400a8009e040000b2
:020000040000fa
:0400ac009e040000ae
:020000040000fa
:0400b00072030000d7
:020000040000fa
:0400b4001203000033
:020000040000fa
:0400b8009e040000a2
:020000040000fa
:0400bc009e0400009e
:020000040000fa
:0400c0009e0400009a
:020000040000fa
:0400c4009e04000096
:020000040000fa
:0400c8009e04000092
:020000040000fa
:0400cc009e0400008e
:020000040000fa
:0400d0009e0400008a
:020000040000fa
:0400d4009e04000086
:020000040000fa
:0400d8009e04000082
:020000040000fa
:0400dc009e0400007e
:020000040000fa
:0400e0009e0400007a
:020000040000fa
:0400e4009e04000076
:020000040000fa
:0400e8009e04000072
:020000040000fa
:0400ec009e0400006e
:020000040000fa
:0400f0009e0400006a
:020000040000fa
:0400f4009e04000066
:020000040000fa
:0400f8009e04000062
:020000040000fa
:0400fc009e0400005e
:020000040000fa
:040100009e04000059
:020000040000fa
:040104009e04000055
:020000040000fa
:040108009e04000051
:020000040000fa
:04010c009e0400004d
:020000040000fa
:040110009e04000049
:020000040000fa
:040114009e04000045
:020000040000fa
:040118009e04000041
:020000040000fa
:04011c009e0400003d
:020000040000fa
:040120009e04000039
:020000040000fa
:040124009e04000035
:020000040000fa
:040128009e04000031
:020000040000fa
:04012c009e0400002d
:020000040000fa
:040130009e04000029
:020000040000fa
:040134009e04000025
:020000040000fa
:040138009e04000021
:020000040000fa
:04013c009e0400001d
:020000040000fa
:040140006a0300004e
:020000040000fa
:040144009e04000015
:020000040000fa
:040148009e04000011
:020000040000fa
:04014c009e0400000d
:020000040000fa
:040150009e04000009
:020000040000fa
:040154009e04000005
:020000040000fa
:040158009e04000001
:020000040000fa
:04015c009e040000fd
:020000040000fa
:040160009e040000f9
:020000040000fa
:040164009e040000f5
:020000040000fa
:040168009e040000f1
:020000040000fa
:04016c009e040000ed
:020000040000fa
:040170009e040000e9
:020000040000fa
:040174009e040000e5
:020000040000fa
:040178009e040000e1
:020000040000fa
:04017c009e040000dd
:020000040000fa
:040180009e040000d9
:020000040000fa
:040184009e040000d5
:020000040000fa
:040188009e040000d1
:020000040000fa
:04018c009e040000cd
:020000040000fa
:040190009e040000c9
:020000040000fa
:040194009e040000c5
:020000040000fa
:040198009e040000c1
:020000040000fa
:04019c009e040000bd
:020000040000fa
:0401a0009e040000b9
:020000040000fa
:0401a4009e040000b5
:020000040000fa
:0401a8009e040000b1
:020000040000fa
:0401ac009e040000ad
:020000040000fa
:0401b0009e040000a9
:020000040000fa
:0401b4009e040000a5
:020000040000fa
:0401b8009e040000a1
:020000040000fa
:0401bc009e0400009d
:020000040000fa
:0401c0009e04000099
:020000040000fa
:0401c4009e04000095
:020000040000fa
:0401c8009e04000091
:020000040000fa
:0401cc009e0400008d
:020000040000fa
:0401d0009e04000089
:020000040000fa
:0401d4009e04000085
:020000040000fa
:0401d8009e04000081
:020000040000fa
:0401dc009e0400007d
:020000040000fa
:0401e0009e04000079
:020000040000fa
:0401e4009e04000075
:020000040000fa
:0401e8009e04000071
:020000040000fa
:0401ec009e0400006d
:020000040000fa
:0401f0009e04000069
:020000040000fa
:0401f4009e04000065
:020000040000fa
:0401f8009e04000061
:020000040000fa
:0401fc009e0400005d
:020000040000fa
:040200009e04000058
:020000040000fa
:040204009e04000054
:020000040000fa
:040208009e04000050
:020000040000fa
:04020c009e0400004c
:020000040000fa
:040210009e04000048
:020000040000fa
:040214009e04000044
:020000040000fa
:040218009e04000040
:020000040000fa
:04021c009e0400003c
:020000040000fa
:040220009e04000038
:020000040000fa
:040224009e04000034
:020000040000fa
:040228009e04000030
:020000040000fa
:04022c009e0400002c
:020000040000fa
:040230009e04000028
:020000040000fa
:040234009e04000024
:020000040000fa
:040238009e04000020
:020000040000fa
:04023c009e0400001c
:020000040000fa
:040240009e04000018
:020000040000fa
:040244009e04000014
:020000040000fa
:040248009e04000010
:020000040000fa
:04024c009e0400000c
:020000040000fa
:040250009e04000008
:020000040000fa
:040254009e04000004
:020000040000fa
:040258009e04000000
:020000040000fa
:04025c009e040000fc
:020000040000fa
:040260009e040000f8
:020000040000fa
:040264009e040000f4
:020000040000fa
:040268009e040000f0
:020000040000fa
:04026c009e040000ec
:020000040000fa
:040270009e040000e8
:020000040000fa
:040274009e040000e4
:020000040000fa
:040278009e040000e0
:020000040000fa
:04027c009e040000dc
:020000040000fa
:040280009e040000d8
:020000040000fa
:100400008f6a21000eff2c000e0188000000000002
:10041000000020000000e000020032000001200087
:100420002002880014000700460107000000e000d9
:1004300003003a00605d2200010020000200370046
:100440000000200001002000810f70000100320038
:100450000f000700000020000000e0000200320052
:1004600000000200000000009026020000000000d2
:100470000040da000000fe00200020000000e00044
:1004800002003200100020009001880000000600e9
:10049000a1028800800478000000eb001f003700f4
:1004a000e284440054a0b4009905ba00e2844400f8
:1004b00054a0b4009906ba00e284440054a0b400e9
:1004c0000006eb00476fde00fd07b200ae018800ba
:1004d000636ce10003003a000ad801000000eb0061
:1004e0000e003700606ce10008003a00004deb00a0
:1004f0000a05e800020039003420ec000af0a000f0
:100500008b05e900f9ff3e00040037006168e10057
:10051000010032000086eb000b00070019c7ba008b
:100520000e04e0001905ba0003003a000a00e000da
:10053000dbff3a0000000600fe07b200ae028800b2
:100540008a047800f5ff37000cd0a300e20f4d00bd
:100550001c00390089027800354dba000a05e80010
:10056000020039003420ec000af0a0008b05e900fd
:100570000f003200254dba000a05e80002003900dc
:100580003420ec000af0a0008b05e90008003200de
:100590000c00e0000600320015cdba000a05e800a4
:1005a000020039003420ec000af0a0008b05e900bd
:1005b0008984e80054a0b4000b00e000e2ff3a0098
:1005c000000006009902ba00055d78008b05e9007d
:1005d000f7ff3200c82ade00055d78008b05e900d0
:1005e000f3ff32000c00e000f1ff320019ddba0029
:1005f000eeff3700c622040000000000a82204001d
:10060000000000007c22040000000000e81104004b
:10061000000000007c11040000000000fe0f040038
:10062000000000003600f800809fbe00829fbe00e0
:10063000849fbe00869fbe000000fa00512080000b
:1006400000022000008060000000e0001300320083
:100650005120800000002200008060000000e000c7
:10066000010032002e06070051208000000021000a
:10067000008060000000e000010032002c0607004e
:100680005120800000802000008060000000e00019
:10069000010032002a0607000aa4a90050208000a9
:1006a000620060000000e00002003200280607003f
:1006b0000a24a9000468a9000080fa004f03be00c4
:1006c0004f02be004f01be004f00be003600f900d1
:1006d000004006000000fa0008c8a9000080fa00e7
:1006e000004006000000fa000448a9000080fa005b
:1006f000004006003600f800809fbe00829fbe00ca
:10070000849fbe00869fbe000000fa00f90f07001c
:100710000088a9000080fa004f03be004f02be000f
:100720004f01be004f00be003600f9000040060039
:100730003600f800809fbe00829fbe00849fbe00ee
:10074000869fbe000000fa00ed0f070001c8a90057
:100750000080fa004f03be004f02be004f01be00f2
:100760004f00be003600f900004006003600f800d9
:10077000c028a9000000eb00561107003600f80061
:1007800058110700c048a9001000200051110700af
:100790003600f800c068a900200020004d110700b5
:1007a0003600f800c088a900300020004911070079
:1007b0003600f800c0a8a90040002000451107003d
:1007c0003600f800c608a90070002000411107009b
:1007d0003600f80021468000000220000080600002
:1007e0000000e00003003200c4a8a900900020002f
:1007f0003811070020468000700060000000e00013
:1008000003003200c488a900a000200031110700b5
:10081000ffff3700809fbe00829fbe00849fbe0006
:10082000869fbe000000fa0020012100100278001f
:100830009002900020039000b00390001000200070
:10084000010020006011b8000000420081804a00d1
:1008500002014b0083814b0024012100009abe005d
:100860000292be000068a9000080fa004f03be009b
:100870004f02be004f01be004f00be000040060008
:100880003600f800809fbe00829fbe00849fbe009d
:10089000869fbe000000fa00301180000040780002
:1008a00080407800006021008e0b07000168a900dd
:1008b0000080fa004f03be004f02be004f01be0091
:1008c0004f00be003600f900004006003600f80078
:1008d000809fbe00829fbe00849fbe00869fbe0098
:1008e0000000fa0040652100a80a0700e00f500050
:1008f000e08f5800e00f5900e08f590005003200ea
:1009000040652100000b07000080fb0020118800db
:100910000200370010c0b30022f0b7000188a90020
:100920000080fa004f03be004f02be004f01be0020
:100930004f00be003600f900004006000040da001b
:100940000000fe0000000500800178000200370072
:10095000815978000201e9000200e000fcff3a0042
:04096000000006008d
:020000040000fa
:100964000a00fa00000f78002147980032479800e7
:100974002307980034079800450798001e00780064
:10098400ae409000014878003e409000e14f500096
:10099400030032003e409000e24f50001a003a003b
:1009a4001e007800be409000114098001e007800a0
:1009b400be009000110098001e007800ce00900048
:1009c400210098001e0078008000eb003128990077
:1009d4001e0078008040eb0001d89a001e007800c9
:1009e4008040eb0011d89a001e0078008000eb00d4
:1009f400512899001e00780058010700ae009000ad
:100a04001e007800010001000080fa0000000600ca
:100a14000200fa00000f78001e00780010409000d9
:100a2400e14f500008003a00602080006800600038
:100a34000000e0000200320010c0b3000f003700d5
:100a44000040eb000d0037001e00780010409000bd
:100a5400e24f500008003a006028800068006000ff
:100a64000000e0000200320010c0b30003003700b1
:100a74000040eb000100370010c0b3000080fa0012
:100a8400000006000200fa00000f78001e00780043
:100a940010409000e14f500002003a000c64a8009e
:100aa400050037001e00780010409000e24f50000f
:100ab40001003a000c65a8000080fa00000006005e
:100ac4000200fa00000f78001e0078001040900029
:100ad400e14f500002003a000c64a9000500370001
:100ae4001e00780010409000e24f500001003a00d0
:100af4000c65a9000080fa00000006000800fa0056
:100b0400000f7800110798002207980063479800a7
:100b14006e4090000004e0000e0032009e00780059
:100b24001e009000600cb0000000400000804000f7
:100b3400ae009000010878009e0078001e0090002e
:100b4400008040006023b00011c0b3000148780069
:100b54000d0037001e007800e02891001e00900070
:100b64000000400000804000ae00900001087800c2
:100b74009e0078001e00900000804000e017b00046
:100b840011c0b300014878000080fa00000006009c
:100b94000600fa00000f78001107980042479800f9
:100ba4004e4090000004e000070032009e007800f0
:100bb4001e009000600cb000000040000080400067
:100bc40010007800060037001e007800e02891002d
:100bd4001e009000000040000080400010007800db
:100be4000080fa00000006000400fa00000f7800fc
:100bf400110798001e0090001e004000104078006d
:100c04000004a2000004e000020032000040eb00f7
:100c1400050037001e0090001e0040008040eb00dd
:100c24000148780010c0b3000080fa0000000600fc
:100c34000400fa00000f7800110798000041eb004f
:100c44009e0090001e007800d1ff07000080fa008b
:100c5400000006000400fa00000f78001107980055
:100c640012c0b3009e0090001e007800c8ff070069
:100c74000080fa00000006000400fa00000f78006b
:100c8400110798001e007800103091009e0090001b
:100c9400d5ff07000080fa00000006000400fa00f7
:100ca400000f7800110798001e00780000309100b2
:100cb4009e009000ccff07000080fa0000000600b0
:100cc4000400fa00000f7800110798001e0090003d
:100cd400f04090001e007800014878001e00e800f3
:100ce4009e00900081489000014878001e80e80032
:100cf4009e00900091489000014878009e00780082
:100d0400638040009e009000a14890000148780054
:100d14009e007800648040009e009000b1489000de
:100d2400014878009e007800658040009e00900095
:100d3400c1489000014878009e0078006680400019
:100d44009e009000d1489000014878009e007800f1
:100d5400678040009e009000e148900001487800c0
:100d64000080fa00000006000400fa00000f78007a
:100d7400110798001e009000904078001e00780033
:100d8400714098001e0090000000e8009040780038
:100d94001e007800014898001e0090000080e800c2
:100da400904078001e007800114898001e009000c2
:100db40063004000904078001e00780021489800ad
:100dc4001e00900064004000904078001e007800ef
:100dd400314898001e009000650040009040780063
:100de4001e007800414898001e00900066004000f4
:100df400904078001e007800514898001e00900032
:100e040067004000904078001e0078006148980018
:100e14000080fa00000006000600fa00000f7800c7
:100e240011079800424798004e4090000080fb0054
:100e3400e30f500023003200e30f500007003c0092
:100e4400e10f500013003200e10f500017003c0086
:100e54000000e0000a00320038003700e50f5000bf
:100e640024003200e50f50001c003500e60f50004e
:100e740026003200e70f50002a0032002f0037000e
:100e84001e009000904078001e0078007140980089
:100e94002a0037001e0090000000e800904078000f
:100ea4001e00780001489800240037001e009000be
:100eb4000080e800904078001e00780011489800f7
:100ec4001e0037001e009000630040009040780030
:100ed4001e00780021489800180037001e0090007a
:100ee40064004000904078001e007800314898006b
:100ef400120037001e00900065004000904078000a
:100f04001e007800414898000c0037001e00900035
:100f140066004000904078001e0078005148980018
:100f2400060037001e0090006700400090407800e3
:100f34001e00780061489800000000000080fa005c
:100f4400000006000200fa00000f7800a11620003d
:100f54001e8040000080fa00000006000200fa0033
:100f6400000f78001e00780010417800e11720007f
:100f74001e80400080007800a31620001e804100df
:100f84008002eb0002427800430120000101780056
:100f9400800078001e0078000e0007006123200006
:100fa4001e80400080007800c21820001e0041000e
:100fb40015002000f4c1b300a30a20000101780049
:100fc400800078001e007800020007000080fa000c
:100fd400000006000c00fa00000f780011079800ca
:100fe4002207980033079800044f9800550798008b
:100ff4009e0078005e009000e00ab000000040000f
:10100400008040009e009000010878009e00780057
:101014005e009000000bb000000040000080400023
:10102400ae009000010878009e0078005e009000f9
:10103400008040004016b0008e48900001487800bf
:101044009e0078005e009000300bb000000040006d
:1010540000804000be009000010878005e0090000f
:10106400e10f500004003a00211020001e804000cf
:10107400380a070009003700e10a20001e804000fa
:10108400340a0700a10520001e804000310a070031
:101094009e007800668040002e0a07000080fa0057
:1010a400000006000600fa00000f780011079800ff
:1010b400220798009e0078001e009000000bb000ec
:1010c4000000400000804000900078002e00900056
:1010d4000080400011c0b300014878000080fa008d
:1010e400000006000600fa00000f780011079800bf
:1010f400220798009e0078001e009000000bb000ac
:101104000000400000804000900078002e00900015
:10111400008040008040eb00014878000080fa0025
:10112400000006000600fa00000f7800110798007e
:10113400220798009e0078001e009000000bb0006b
:101144000000400000804000900078002e009000d5
:1011540000804000104078000004e00006003200e7
:101164002e0190009e0090001e007800ddff070015
:1011740010c0b300010037000040eb000080fa000b
:10118400000006000600fa00000f7800110798001e
:10119400424798009e0090001e007800e10007007e
:1011a4004e4090008080fb001e0178001e009000dd
:1011b400300bb00000004000000041001000780037
:1011c400808f50000c0031009e0078001e009000bb
:1011d400e00ab00000004000008040009000780069
:1011e4004e4090000080fb00000040000080400062
:1011f40010007800010037000080eb000080fa0046
:10120400000006000400fa00000f7800110798009f
:101214009e0078001e009000500bb00000004000bb
:10122400008040008000eb00010878000080fa0094
:10123400000006000a00fa00200798003107980011
:1012440042079800be0090004e009000808f50002e
:1012540006003400be009000110798004e01900073
:10126400320798009e009000410798003e019000cc
:10127400020f78000c003700ae009000520b2000e3
:101284001e00410000004000008040008000eb0090
:10129400010878001e0178008000eb002e00900009
:1012a40090ff07001e0fe8004e0090009e0078009b
:1012b400808f5000f0ff34000080fa000000060028
:1012c4000800fa00100798002107980032079800d8
:1012d4003e0090000000e00004003a001e00900070
:1012e400e10a2000010f4000030037001e009000b7
:1012f40024102000040f40002e0090009000900065
:1013040010007800c609de004a0add004601de004e
:10131400020172009e0090003e0090004016b00052
:1013240000804000104078000080fb008000eb004b
:10133400800f5100818f590078003a002e009000f0
:1013440060409000e84f5000040032002e009000ee
:1013540060409000e94f500048003a002e00900091
:10136400704090000080fb00c800dd002e0090005b
:10137400004890000080fb0000804000800078005e
:101384001e0190003e009000300bb00000004000b1
:101394000000410010007800808f50000e003100e2
:1013a4002e009000a04890002e009000004890006d
:1013b40001417800804078001e007800020907008f
:1013c4009e0090003e009000008040008015b00018
:1013d40011c0b300014878002e00900030489000fe
:1013e4000080fb00c800dd002e0090004048900003
:1013f4000080fb0000804000800078001e01900007
:101404003e009000300bb00000004000000041009e
:1014140010007800808f50000e0031002e009000e4
:10142400e04890002e009000404890000141780070
:10143400804078001e007800e30807009e009000ba
:101444003e009000008040008015b00011c0b30041
:10145400014878002e009000900090001000780061
:10146400004078007f406000004178008040eb003d
:101474001e007800d4080700280037002e009000d2
:10148400704090000080fb00c800dd002e0090003a
:10149400004890000080fb0000804000800078003d
:1014a4001e0190003e009000300bb0000000400090
:1014b4000000410010007800808f50000e003100c1
:1014c4002e009000a04890002e009000004890004c
:1014d40001417800804078001e007800ba080700b7
:1014e4009e0090003e009000008040008015b000f7
:1014f40011c0b300014878002e00900090009000c5
:1015040010007800004078007f40600000417800bf
:101514008040eb001e007800ab0807000080fa0052
:10152400000006000a00fa00881f780030079800bf
:10153400410798004e0090000000e00004003a00cb
:101544003e009000e10a2000010f40000300370034
:101554003e00900021102000010f4000be009000ca
:101564004e0090008015b0000080400010407800cc
:101574000004e0002c003200be0090004e009000f9
:10158400008040008015b0008040eb0001487800e6
:101594001e0078007c070700100798001e009000ca
:1015a4000000e0001e003200180037001e00780022
:1015b400d40707000080fb0020079800be009000bd
:1015c4004e009000e00ab00000004000008040009f
:1015d400900078002e00900000004000008440003d
:1015e4001e007800c70707000080fb00000c78008d
:1015f4002e019000ce0090003e009000a9fe07004e
:101604001e0090000080e900100798001e00900062
:101614000000e000e5ff3c0010002000030037005c
:101624000000eb00010037000000eb004f047800dd
:101634000080fa00000006002600fa001017980047
:10164400211798001e109000660040004e07070006
:10165400e00f5000e08f5800e00f5900e08f590070
:101664002e0132007a004700ae10900094fd07006e
:101674001e10900066004000430707000203be00ee
:101684000002be0060002000010020006011b800cc
:101694000020e10001a8e10002b0e10003b8e1008c
:1016a400690036001e109000660040009507070090
:1016b4000080fb00500798005e009000c600dd002b
:1016c4001e109000104078000080fb000080400055
:1016d4008000eb002e1190000089be000000eb009a
:1016e400000f78000000eb00000f780014003700b2
:1016f4001e10900066004000820707000080fb0077
:10170400600798001e00780000004000ee00900082
:10171400c808de00814078007a0040000177780034
:101724001e007800000040000000e800ee00900079
:10173400814078007a004000017778001e0fe800ad
:101744001e007800e10f5000e9ff34001e109000e5
:1017540066004000a40707008080fb005e00900044
:10176400808f500030003a001e1090006600400048
:10177400640707000000eb00100798002000200019
:1017840010079800160037001e10900066004000f5
:101794005c0707000080fb00700798001e009000a3
:1017a40000004000fe009000c808de008140780080
:1017b4007a004000017778001e009000000040008d
:1017c4000000e800fe009000814078007a004000ac
:1017d400017778001e0090000000e80010079800d0
:1017e4001e009000e30f5000e7ff34001e1090002d
:1017f400660040007c0707008080fb005e009000cc
:10180400808f500004003a002e10900081c0b30075
:1018140061409800070037002e10900091c0b3007b
:1018240061409800030037002e10900041c0b300bf
:10183400614098007a004700800078002e109000e4
:1018440049fd0700b30037001e10900066004000f9
:10185400cd0607000203be000002be0060002000a7
:10186400010020006011b8000020e10001a8e1009f
:1018740002b0e10003b8e10060003a001e109000dd
:10188400660040001f0707000080fb00000f98005f
:101894000e089000c600dd001e1090001040780075
:1018a4000080fb00008040008000eb002e119000bf
:1018b4000089be000000eb00200798000000eb0048
:1018c40020079800160037001e10900066004000a4
:1018d4000c0707000080fb00100f98002e009000fa
:1018e400000040009e089000c808de008140780097
:1018f4007a004000017778002e009000000040003c
:101904000000e8009e089000814078007a004000c2
:10191400017778002e0090000000e800200798006e
:101924002e009000e10f5000e7ff34001e109000dd
:10193400660040002c0707008080fb000e08900022
:10194400808f500025003a001e1090006600400071
:10195400ec0607000000eb00300798002000200090
:1019640030079800160037001e10900066004000f3
:10197400e40607000080fb00200f98003e00900062
:1019840000004000ae089000c808de0081407800e6
:101994007a004000017778003e009000000040008b
:1019a4000000e800ae089000814078007a00400012
:1019b400017778003e0090000000e80030079800ae
:1019c4003e009000e30f5000e7ff34002e1090001b
:1019d40091c0b30061409800030037002e109000be
:1019e40041c0b300614098007a004700800078004d
:1019f4002e109000dcfc0700460037001e109000fb
:101a040066004000600607000203be000002be003c
:101a140030002000010020006011b8000020e10027
:101a240001a8e10002b0e10003b8e10034003a008b
:101a34001e10900066004000b20607000080fb0004
:101a4400300f98003e089000c600dd001e10900084
:101a5400104078000080fb00008040008000eb0014
:101a64002e1190000089be002e10900041c0b300da
:101a7400614098000000eb00400798000000eb0074
:101a840040079800160037001e10900066004000c2
:101a94009c0607000080fb00400f98004e00900059
:101aa40000004000ce089000c808de0081407800a5
:101ab4007a004000017778004e009000000040005a
:101ac4000000e800ce089000814078007a004000d1
:101ad400017778004e0090000000e800400798006d
:101ae4004e009000e10f5000e7ff34007a004700f9
:101af400800078002e1090009bfc07000500370042
:101b04001e109000660040004b0707000040eb00e9
:101b14000500370010c0b300030037001e1090000a
:101b2400e7fb07000040eb000080fa00000006001d
:101b34000400fa00000f7800110798001e009000be
:101b44000000e000030032001e009000e10f50008e
:101b540003003a001e0078009e009000312899008e
:101b64000080fa00000006000400fa00000f78006c
:101b7400110798009e0078001e009000e00ab00053
:101b840000004000008040008000eb000108780065
:101b94000080fa00000006000400fa00000f78003c
:101ba400110798001e007800104078000080fb00a8
:101bb400e500b900800078001e009000008040001d
:101bc4000080fa00000006000600fa00000f78000a
:101bd40011079800220798001e0090000041780029
:101be4001e0090004800de0080407800a30520001d
:101bf4001e804100f40607002e009000004178008a
:101c04002e0090004800de0080407800a3052000ec
:101c14001e804100ec0607000080fa000000060068
:101c24001400fa00000f9800110f98001e0890008d
:101c34006101b8000e08900040e092000080fb00b3
:101c44008000eb000e0a9000a60520000403430068
:101c54000202be000001be00860078000e0078007b
:101c64000e0007000e089000100190008e0078000e
:101c740030002000020001000e08900064fb070001
:101c84000004a2000004e000020032000e089000ec
:101c94007cfb07000080fa00000006001c00fa002c
:101ca400881f780000047800110f9800220f980014
:101cb400330f9800440f9800550f98001e089000a9
:101cc400b1050700004f78004e089000de08900030
:101cd4004609dd00ca01de00830171004601dd0012
:101ce4002e089000be0890000000710081807100f1
:101cf400100798002107980040c0b300604798007f
:101d04001e407800e74f50001b0036001e0890006c
:101d1400fc050700104f98001e089000f905070005
:101d2400204f98001e089000f6050700304f9800d9
:101d34001e089000f3050700404f98001e0890000d
:101d4400f0050700504f98001e089000ed050700ad
:101d5400604f98001e089000ea050700704f980035
:101d64001e089000e70507000057980080c0b300e4
:101d7400004f9800110037001e407800e34f5000d8
:101d84000e0036001e089000de050700104f980074
:101d94001e089000db050700204f98001e089000e5
:101da400d8050700304f98001e089000d50507009d
:101db400404f980040c0b300004f9800e200470035
:101dc40007000900311c78000801b1000800780000
:101dd4004f0478000080fa00000006000200fa00b8
:101de400000f78001e007800e10f50000900320057
:101df400e10f500005003900e20f500007003200e7
:101e0400e30f5000070032000800370001eba80080
:101e14000600370011eba8000400370021eba800ee
:101e24000200370031eba800000000000080fa0037
:101e3400000006000400fa00000f78001107980063
:101e44001e007800e10f50000b003200e10f50003b
:101e540005003900e20f50000b003200e30f500080
:101e64000d003200100037009e00900021588800b9
:101e7400062bef000c0037009e009000a15888004c
:101e8400162bef00080037009e00900021598800af
:101e9400262bef00040037009e009000a159880013
:101ea400362bef00000000000080fa00000006005e
:101eb4000400fa00000f7800110798001e00780053
:101ec400e10f50000a003200e10f50000500390014
:101ed400e20f500009003200e30f50000a00320004
:101ee4000c0037009e0090006158880009003700fc
:101ef4009e009000e1588800060037009e00900084
:101f040061598800030037009e009000e159880061
:101f1400000000000080fa00000006000000fa0043
:101f2400610a07000080fa00000006000000fa00c1
:101f3400600a07000080fa00000006000000fa00b2
:101f44005f0a07000080fa00000006001400fa008f
:101f5400640047001d0107002e009000be009000a1
:101f6400c609de004a0add004601de0002017200f5
:101f7400f0012000010020000202780083017800b3
:101f84000001780001007800020162000080610015
:101f94008000eb00c000dd0000002000008fbe00c8
:101fa4006110b8001e1f70001e9770001e0178009b
:101fb4009e019000f001200001002000800f5100dc
:101fc400818f590005003a00d0808000e40047006a
:101fd40012002000bafc070004003700d080800003
:101fe400e40047000001eb00b5fc0700370a0700d6
:101ff4000080fa00000006000200fa00000f7800da
:102004002468a9000c24ef0001208000f08f2f0029
:102014000080600000a0a0000020880000000000f4
:1020240001208000000e2000808060000008200055
:10203400808f5000faff3a001000200080208800b2
:10204400a02b20009020880010002c003020880055
:1020540030002000a02088000024ef000004a80025
:10206400c1208000c0ff2f0000806000c0208800d5
:10207400c120800030ff2f00008060000020a000fd
:10208400c020880080218000ff00600000c02f0075
:102094000100700080218800a0218000ff00600002
:1020a40000c02f0001007000a0218800c021800022
:1020b400ff00600000c02f0001007000c0218800f4
:1020c40081218000c0ff2f000080600080218800f3
:1020d400a1218000c0ff2f0000806000a0218800a3
:1020e400c1218000c0ff2f0000806000c021880053
:1020f4003224ef003624ef003a24ef003064a900c4
:102104003464a9003864a900002280007f006000c4
:1021140000d0a0000022880020228000ff00600080
:1021240000802f000100700020228800012280001e
:10213400c0ff2f0000806000002288002122800060
:10214400c0ff2f0000806000202288004224ef009e
:102154004624ef004064a9004464a90001218000e2
:1021640000ff2f00008060000010a0000021880004
:1021740001218000f0f02f00808060000003200027
:1021840001007000002188000004a90030e4a800c8
:1021940031e4a80032e4a90033e4a90034e4a9003e
:1021a40035e4a90036e4a90037e4a90081218000c0
:1021b400c0ff2f0000806000802188008121800002
:1021c400f0cf2f00008060008021880091218000e2
:1021d400c0ff2f00008060009021880091218000c2
:1021e400f0cf2f000080600090218800a1218000a2
:1021f400c0ff2f0000806000a0218800a121800082
:10220400f0cf2f0000806000a0218800b121800061
:10221400c0ff2f0000806000b0218800b121800041
:10222400f0cf2f0000806000b02188002024ef0050
:102234002224ef002824ef002a24ef000a24a90016
:1022440001208000f08f2f000080600000208800b3
:102254000000000001208000000e200000806000cb
:102264000000e000fbff3a002468a8000c24a8004a
:102274000ca4a80028c8a8002448a8009e00780040
:10228400d18088000080fa00000006000000fa00f7
:1022940020442000800078001000200004ff070084
:1022a400004021008000780010002000e1fe0700bb
:1022b40010002000c9fe07000080fa00000006009c
:1022c4000000fa0000442000800078000000eb00c9
:1022d400f7fe070000402100800078000000eb00ba
:1022e400d4fe07000000eb00bcfe07000080fa00eb
:1022f400000006000a00fa00300798004107980021
:1023040000432000000f78000040eb004047980095
:102314000000eb0010079800260037001e0078002c
:102324009040780000c8b30000c060000004e000e2
:102334001c0032001e0078001040780068406000e5
:102344000004e00017003a00014021001e00900044
:102354004400dd0000804000ce009000a30107008f
:102364003e00900000407800e34060001e007800ca
:10237400e3c0600090417800c2cfb30002c16100a5
:1023840081407100014878001e0078009040780078
:102394000134a0000148780010c0b3004047980001
:1023a400070037001e0fe8001e0090000000e80040
:1023b400100798001e009000e10f5000d7ff360070
:1023c4004e4090000080fa00000006000800fa0069
:1023d400300798000040eb0020479800012180005e
:1023e400210798002e0090000000e0002800320031
:1023f4000000eb00000f780020003700e080800030
:10240400ae0090000008de0061006000004078002b
:102414000004e0000e003200e080800000407800fc
:10242400be0090006f000700e080800011002000d3
:102434000008dd000080ea008000780000218000b0
:10244400008060000021880010c0b300204798007d
:10245400e08080000000e800e0808800e0808000e8
:10246400ef0f5000010036001c30ef002e409000aa
:102474000004e00005003a001e0fe8001e0078008a
:10248400ef0f5000ddff36000100370000000000b0
:102494002e4090000080fa00000006000000fa00c0
:1024a400502080004d00de00614060000080fb0091
:1024b40000f0a7000000ea000000ea004f00de0080
:1024c400004078000080fa00000006000000fa00d6
:1024d400502080004b00de00614060000080fb0063
:1024e40000f0a7000000ea000000ea004f00de0050
:1024f400004078000080fa00000006000000fa00a6
:10250400502080004c00de00614060000080fb0031
:1025140000f0a7000000ea000000ea004f00de001f
:10252400004078000080fa00000006000600fa006f
:102534000000eb00000f78000121800021079800c3
:102544002e0090000000e000110032000000eb00bb
:10255400100798000b0037001e009000ae0090009a
:102564000008de0061006000004078000004e00024
:10257400010032001e0fe8001e0090000000e80079
:10258400100798001e009000ef0f5000f2ff360075
:102594001e007800004078000080fa000000060069
:1025a4000000fa000ac4a9000cc4a800012080009d
:1025b400f08f2f00008060000080a00000208800c1
:1025c4000000000001208000000e200080806000d8
:1025d40000022000808f5000faff3a000080fa00c9
:1025e400000006000c00fa00004f98005107980004
:1025f4000000eb00100798000000eb00000f7800cb
:102604006000b80020079800310798000e48900039
:102614000080fb00c400dd00004021000080400079
:102624001000780061006000100798001e00900000
:102634000000e00017003a000e4890000080fb0004
:10264400c400dd00004021000080400090007800bc
:10265400c0ff2100008060004200de008000eb002b
:102664005e0190000089be005e00900041c0b3008e
:10267400414098000e4890000080fb00c400dd003b
:10268400004021000080400010007800620f6000cc
:102694006b0037000e4890000080fb00c400dd0092
:1026a4000040210000804000100078006101b80063
:1026b400c0ff21000100200002027800030178001d
:1026c40080017800010078000302620000006100cc
:1026d4008000eb00c000dd00000020000001be000f
:1026e4006120b80000017100818171002207980007
:1026f400330798002e009000be009000c000dd005b
:10270400000020005e0190000089be005e00900081
:1027140010027800900290000e4890000080fb00a8
:102724004400dd008080e80000402100008040007b
:10273400100078006101b800f0ff200001002000c3
:10274400020378000301780080017800010078001a
:1027540003036300000061008000eb00c000dd00a3
:10276400000020000001be006130b80000017100cb
:10277400818171004618dd00ca10de0081007000fe
:102784004610dd0004004000858048005e01900092
:102794000089be005e009000100278009002900054
:1027a4000e4890000080fb004400dd00e40040007f
:1027b4000040210000804000100078004a00de0044
:1027c4006101b800f0ff2f0001002000020378002f
:1027d400030178008001780001007800030363009e
:1027e400000061008000eb00c000dd00000020005c
:1027f4000001be006130b8000001710081817100e8
:1028040004004100858049005e0190000089be00fb
:102814005e00900031c0b300414098000e48900023
:102824000080fb004400dd00e40040000040210083
:10283400008040009000780000202000008f60009d
:102844001e0078000000e000040032005e009000ea
:1028540021c0b30051409800620037005e00900030
:1028640011c0b300514098000e4890000080fb0056
:102874004400dd00e60040000040210000804000ec
:1028840010007800804078005e009000714098004d
:102894000e4890000080fb004400dd00e60040008c
:1028a4000040210000804000100078004800de0055
:1028b400804078005e009000014898000e48900027
:1028c4000080fb004400dd00e800400000402100df
:1028d4000080400010007800804078005e00900086
:1028e400114898000e4890000080fb004400dd0071
:1028f400e800400000402100008040001000780003
:102904004800de00804078005e0090002148980076
:102914000e4890000080fb004400dd00ea00400007
:1029240000402100008040001000780080407800c2
:102934005e009000314898000e4890000080fb0033
:102944004400dd00ea004000004021000080400017
:10295400100078004800de00804078005e0090009f
:10296400414898000e4890000080fb004400dd00c0
:10297400ec0040000040210000804000100078007e
:10298400804078005e009000514898000e48900006
:102994000080fb004400dd00ec004000004021000a
:1029a40000804000100078004800de00804078007d
:1029b4005e009000614898000e4890000080fb0083
:1029c4004400dd00e400400000402100008040009d
:1029d4001000780000407800ef4060005e00900036
:1029e400614098000080fa00000006000400fa002c
:1029f400000f7800110798001e00900040409000de
:102a0400e44f500014003a001e0090009000900023
:102a14001000780080007800f07f200000806000c3
:102a2400c200dd001e007800010878001e80e80066
:102a34008000eb00010878009e007800648040006c
:102a44009e009000e14090008180fb00ef806000d8
:102a540001087800240037001e00900090009000c8
:102a6400100078004008de0080007800c0ff2100dc
:102a740000806000800078000100a0001e00780043
:102a8400010878001e81e8001e009000900090006c
:102a940010007800ca09dd004600de0000807100e5
:102aa400c608de0080007800f0ff2000008060008f
:102ab400000978009e007800648140001e009000a8
:102ac400604090000080fb00ef0160001e00900059
:102ad4009000900010007800000078004a00dd00ab
:102ae40000804100000978009e0178006680410062
:102af4009e009000814890008180fb004809dd0021
:102b04009e009000f14090008180fb008100410014
:102b1400010878009e007800688040009e009000c4
:102b2400a14890008180fb004809dd009e009000d0
:102b3400914890008180fb008100410001087800e9
:102b44009e0178006a8041009e009000c148900078
:102b54008180fb004809dd009e009000b148900090
:102b64008180fb0081004100010878009e0078000c
:102b74006c8040009e009000e14890008180fb0042
:102b84004809dd009e009000d14890008180fb0040
:102b940081004100010878000080fa00000006006e
:102ba4000a00fa00000f7800110798002207980025
:102bb40033079800044f98009e0078000180880035
:102bc4001e01900012808800ae00900021808800d1
:102bd4003e019000328088000e499000810021005f
:102be400824878000a70ef000c30ef0010002000db
:102bf400708088000080fa00000006000000fa00df
:102c0400889fbe008a9fbe00608080006104b80077
:102c14006055b80000808000db0107000040e1003f
:102c240001c8e10002d0e10003d8e100030039004b
:102c340020002000708088000e0037006080800033
:102c44008000eb00048080000001be0004007800d6
:102c54007d020700e64f50000300320030002000e0
:102c64007080880003003700608080000000e80066
:102c7400608088004f05be004f04be000080fa004b
:102c8400000006000000fa00889fbe008a9fbe0074
:102c9400608080006104b8006055b8000080800046
:102ca400b90107000040e10001c8e10002d0e100e1
:102cb40003d8e10003003900200020007080880060
:102cc4000f003700608080008000eb0004808000eb
:102cd4000001be00040078005b02070051c8b30085
:102ce400814f5000030032004000200070808800b3
:102cf40003003700608080000000e80060808800e6
:102d04004f05be004f04be000080fa00000006001c
:102d14000000fa00889fbe008a9fbe006080800089
:102d24006104b8006055b800008080009601070077
:102d34000040e10001c8e10002d0e10003d8e10055
:102d44000300390020002000708088000a0037004a
:102d5400608080008000eb00048080000001be00e1
:102d6400040078003802070009f0b7006080800092
:102d74000000e800608088004f05be004f04be00dc
:102d84000080fa00000006000000fa00889fbe00e0
:102d94008a9fbe00608080006104b8006055b8005e
:102da40000808000780107000040e10001c8e100d4
:102db40002d0e10003d8e100030039002000200024
:102dc4007080880010003700608080008000eb0075
:102dd400048080000001be00040078001a0207008d
:102de4008100210091407800814f5000030032009f
:102df400500020007080880003003700608080004d
:102e04000000e800608088004f05be004f04be004b
:102e14000080fa00000006000000fa00889fbe004f
:102e24008a9fbe00608080006104b8006055b800cd
:102e340000808000540107000040e10001c8e10067
:102e440002d0e10003d8e100030039002000200093
:102e5400708088001c003700608080008000eb00d8
:102e6400048080000001be0004007800f601070021
:102e74000af0b700a100210091407800c0c3b3005c
:102e840080cf50000a003e000ad0bf000081fb0042
:102e9400b0aa2a000010b8000100d100e300b90074
:102ea40000005100004078000004e00003003200fc
:102eb400600020007080880003003700608080007c
:102ec4000000e800608088004f05be004f04be008b
:102ed4000080fa00000006000000fa00889fbe008f
:102ee4008a9fbe000ad0bf008080fb006080800003
:102ef400008040000000e9006104b8006055b8009b
:102f040000808000200107000040e10001c8e100ca
:102f140002d0e10003d8e1000300390020002000c2
:102f240070808800050037000ad0bf008080fb0055
:102f34006080800000804000608088004f05be00f3
:102f44004f04be000080fa00000006004000fa00b2
:102f5400889fbe008a9fbe00608080006104b80024
:102f64006055b80000808000070107000040e100c0
:102f740001c8e10002d0e10003d8e10003003900f8
:102f84002000200070808800260037000000eb003d
:102f9400000f78000b0037009e0078006580400029
:102fa400cf80de00048080000001be0004007800b1
:102fb400a50107001e017800e300410000f7780036
:102fc4001e0fe8000ad0bf000080fb009e0f5000d7
:102fd400f1ff3c00a100210091407800630047000c
:102fe4006b06070020479800608080008000eb009b
:102ff400048080000001be000400780092010700f4
:10300400ae409000814f5000030032007000200059
:103014007080880003003700608080000000e800b2
:10302400608088004f05be004f04be000080fa0097
:10303400000006000000fa00708080000080fa00a2
:10304400000006000200fa00000f780002003700ba
:10305400008080002b01070010c0b3009e007800a0
:103064000100e00001003c000040eb001e0fe900fd
:103074000004e000f6ff3a000080fa0000000600b9
:103084000000fa00ddfe070070808000e10f5000b0
:1030940016003a00fbfe070070808000e10f50002c
:1030a40014003a0038ff070070808000e10f5000e0
:1030b40012003a0016ff070070808000e10f5000f4
:1030c40010003a0054ff070070808000e10f5000a8
:1030d4000e003a0080ff070070808000e10f50006e
:1030e4000c003a0099ff07000b00370000000000b5
:1030f400090037000000000007003700000000004e
:103104000500370000000000030037000000000045
:1031140001003700000000000080fa0000000600f3
:103124001000fa0050002000200798000ad0bf00c9
:103134008080fb002e009000008040003007980043
:10314400ae009000010f7800300037001e007800b8
:10315400cf80de00048080000001be0004007800ff
:1031640039010700004f98001e00e800cf80de0000
:10317400048080000001be000400780032010700d2
:103184000080fb00500798001e80e800cf80de001e
:10319400048080000001be00040078002a010700ba
:1031a4000080fb00600798006e009000c800dd00fe
:1031b4005e00900001007000700798000e489000b7
:1031c4008080fb0030808000808f50000d003d0027
:1031d400118080000e4890000080fb000000400039
:1031e40000804000fe0090000108780021808000eb
:1031f4000e4890000080fb000080400011c0b30026
:10320400014878009e007800638f40003e009000e3
:103214009e007800808f5000ccff35000ad0bf009c
:103224000080fb0066004000100798000200370091
:1032340000808000b300070010c0b3009e0090001f
:103244000100e00001003c000040eb009e00900003
:103254008100e900110798000004e000f4ff3a003f
:103264000080fa00000006000c00fa001007980025
:10327400210798003207980043079800244f9800cc
:103284001030ef002e4a9000ce0190003e019000d5
:10329400ae0090001e00900041fe070000808000f8
:1032a400420007000004e000020032008080800039
:1032b4001a00370072ff07005eff0700000f780056
:1032c4001e007800e10f500003003200e20f5000ae
:1032d400060032000d00370091ff07008080800057
:1032e4000000e800808088000b0037000080800028
:1032f4003f0007000004e00002003200008080006c
:103304004d01070080808000040037001000200079
:103314004cff070000000000daff37000080fa00cd
:10332400000006000200fa00000f78001e02780078
:103334006000b8006011b800601a9800711a980013
:1033440002229800132298001e0278006000b80040
:103354006011b8002022980031229800422298007f
:10336400532298001e0278006000b8006011b80073
:103374006022980071229800022a9800132a98006b
:103384000080fa00000006000200fa00000f780036
:103394001e007800f0189000002190009021900009
:1033a400601890000080fa00000006000200fa0095
:1033b400000f78001e007800f018900000219000a3
:1033c400902190006018900014c0b300e00f5000ea
:1033d400e08f5800e00f5900e08f590001003200df
:1033e4000042eb00044078000080fa000000060070
:1033f4000200fa00881f7800000f78001e00780091
:10340400601a9000f01a900000239000902390001e
:1034140018c0b300c0032000010020006011b800f0
:103424000020e10001a8e10002b0e10003b8e100de
:10343400010032000044eb00084078004f0478009b
:103444000080fa00000006001000fa00889fbe0009
:103454008a9fbe00009fbe000297be0044079800ea
:103464005507980066079800770798001e047800af
:103474009e0490002e059000be05900010002000d0
:10348400010020006011b8000002440081824c0059
:1034940002034d0083834d004e009000de00900037
:1034a4006e019000fe0190000020e10001a8e100ff
:1034b40002b0e10003b8e1000c0031001e02780004
:1034c4009e0290002e039000be0390001000200086
:1034d400010020006011b8000000420081804a0011
:1034e40002014b0083814b00020037006000b800ea
:1034f4006011b8004f05be004f04be000080fa0002
:10350400000006000400fa00100798001e00900056
:10351400f018900000219000902190006018900015
:10352400e00f5000e08f5800e00f5900e08f590081
:10353400280032001e009000f02090000029900026
:1035440090299000602090001e029000000042002c
:10355400104f78001e009000f02090000029900089
:103564009029900060209000c403200005002000f2
:103574006033b800b4ff07001e0290006022980078
:1035840071229800022a9800132a98001e009000c5
:10359400601a9000f01a900000239000902390008d
:1035a400f0ff2f00f1ff2f000001be0000004200d9
:1035b40081804a0002014b0083814b001e0290006f
:1035c400601a9800711a9800022298001322980039
:1035d400020037000040eb00004f78001e407800e6
:1035e4000080fa00000006000200fa00000f7800d4
:1035f4001e007800f01890000021900090219000a7
:1036040060189000e00f5000e08f5800e00f590060
:10361400e08f5900090032001e007800f02090006d
:103624000029900090299000602090001e027800ec
:103634000000420010407800010037000040eb0019
:103644000080fa00000006000600fa00000f78006f
:1036540012079800230798001e007800b0209000fd
:1036640040219000d0219000202090000000be0056
:103674001e019000ae0190000200400083804800cb
:1036840010079800210798001e019000ae019000d9
:10369400b003200001002000800f5100818f5900e9
:1036a400050036001e009000ae009000c003b1007b
:1036b4000180b100020037001e009000ae009000af
:1036c40010079800210798009e0078001e009000c3
:1036d40000804000104078000080fa0000000600de
:1036e4000400fa00000f7800214798001e007800bb
:1036f400601a9000f01a900000239000902390002c
:10370400b0032000010020006011b8000020e10097
:1037140001a8e10002b0e10003b8e10028003e0086
:103724001e007800b020900040219000d02190002d
:10373400202090001e02780000004200ae4090005d
:10374400014878001e007800b020900040219000cd
:10375400d021900020209000c40320000500200008
:103764006033b80038ff07001e027800202298005a
:103774003122980042229800532298001e007800bb
:10378400601a9000f01a900000239000902390009b
:1037940010002000010020006011b8000000420069
:1037a40081804a0002014b0083814b001e02780095
:1037b400601a9800711a9800022298001322980047
:1037c4000080fa00000006000400fa00000f7800f0
:1037d4002147980032479800ae4090001e007800c0
:1037e400bfff0700be4090001e007800bcff07002a
:1037f4000080fa00000006000600fa00000f7800be
:10380400214798003247980043479800ae40900003
:103814001e007800b2ff0700be4090001e00780032
:10382400afff0700ce4090001e007800acff0700f9
:103834000080fa00000006000200fa00000f780081
:103844001e007800f0189000002190009021900054
:1038540060189000800078001e0078000101780054
:103864008000eb0037f407001e0278006000b80007
:103874006011b8002022980031229800422298005a
:10388400532298001e0278006000b8006011b8004e
:103894006022980071229800022a9800132a980046
:1038a4001e0278006000b8006011b800601a980029
:1038b400711a980002229800132298000080fa00de
:1038c400000006000400fa00000f78002147980069
:1038d4001e007800f01890000021900090219000c4
:1038e40060189000000178002e4090008080fb005a
:1038f4001e00780013f407001e0278006000b80070
:103904006011b800202298003122980042229800c9
:10391400532298001e0278006000b8006011b800bd
:103924006022980071229800022a9800132a9800b5
:103934001e0278006000b8006011b800601a980098
:10394400711a980002229800132298000080fa004d
:10395400000006000200fa00000f78001e02780042
:103964006000b8006011b80020229800312298004d
:1039740042229800532298001e0278006000b8008a
:103984006011b8006022980071229800022a980001
:10399400132a98001e0278006000b8006011b80075
:1039a400601a9800711a9800022298001322980055
:1039b4000080fa00000006000200fa00000f780000
:1039c4001e0078000080fa00000006000c00fa00d7
:1039d4001007980041479800320798004307980061
:1039e400540798001e009000ce40900001487800d3
:1039f4000000eb00000f78000c0037009e009000e0
:103a04001e00e80000004000008040008000eb0041
:103a1400010878001e0090001e0040007a0040005b
:103a24008040eb00014878001e0fe8001e0078007b
:103a3400eb0f5000f1ff34001e009000be00900018
:103a440071a098001e009000ce00900001a898007c
:103a54001e009000de00900011a898001e00900047
:103a64006002b0002ffe07001e009000a007b00007
:103a74002cfe07000080fa00000006000400fa0093
:103a8400000f7800214798002e4090000080fb0032
:103a94009e007800008040007a0040008040eb00e7
:103aa400014878002e4090000080fb009e007800c2
:103ab4000000e80000004000008040001000780092
:103ac4000080fa00000006000600fa0010079800c3
:103ad400414798004e4090000080fb009e009000fb
:103ae4007a00400000804000104f78004e40900063
:103af4000080fb009e009000008040007a0040009f
:103b04008040eb00014878001e4078000080fa00f5
:103b1400000006000200fa00000f7800530037008e
:103b24001e00780000a89000000001001ef0b700fd
:103b34001e007800a038900030399000c039900001
:103b44001038900000007800e101210091407800d5
:103b54001e017800000041006002b00001487800b6
:103b64001e007800103a9000a03a9000303b90007c
:103b7400c03b900010002000010020006011b8003c
:103b84000000420081804a0002014b0083814b0007
:103b94001e027800103a9800213a9800323a9800b0
:103ba400433a98001e007800103a9000a03a900022
:103bb400303b9000c03b9000c00320000100200077
:103bc4006011b8000020e10001a8e10002b0e100aa
:103bd40003b8e10007003a001e0278006000b80054
:103be4006011b800103a9800213a9800323a9800cf
:103bf400433a98001e00780010329000a0329000e2
:103c040030339000c0339000c00320000100200036
:103c14006011b8000020e10001a8e10002b0e10059
:103c240003b8e10011003e001e007800103290003d
:103c3400a032900030339000c03390001000200078
:103c4400010020006011b8000000420081804a0099
:103c540002014b0083814b001e0278001032980051
:103c64002132980032329800433298001e007800c6
:103c740010a89000000001000004a2000004e0006d
:103c840006003200610220001e804000d8fd0700bb
:103c94000004a2000004e000a1ff3a001e00780026
:103ca400904178001e0278007a0142009e80e8006c
:103cb400640220001e00420003427800c30020007a
:103cc40069fd07000080fa00000006000a00fa00ff
:103cd400200798006147980042079800ce009000a2
:103ce400010f78001e0078004800de00204798008d
:103cf4001e007800304798002e009000a007b00006
:103d0400ee40900076fe07002e009000a007b00061
:103d1400be40900072fe07002e009000a007b00085
:103d2400ae4090006efe07000080fa00000006001e
:103d34004600fa00881f78001027980041c79800b1
:103d44001e209000a007b0008ffd07001007980008
:103d54001e0090000000e000320032001e2090009f
:103d6400f0a0900060c0b300010001001e2090008c
:103d7400f0a0900050c8b300010001001e20900084
:103d8400f0a090004ec09000010001001e209000a1
:103d9400f0a090001e209000104078000100010067
:103da4001e209000f0a090001e00900000407800bb
:103db400010001000000eb00000f78000d00370047
:103dc4001e209000a007b000cefd070040479800d9
:103dd4009e00780065804000ce4090000177780016
:103de4001e209000f0a090004e40900001000100c1
:103df4001e0fe8001e0090009e007800808f500087
:103e0400efff39001e20900070a490001e00900067
:103e14008040780065004700dd02070008000100cb
:103e240001003700000000004f0478000080fa0011
:103e3400000006000400fa00000f780021479800f3
:103e44002e4090000080fb009e007800008040001f
:103e54007a0040008040eb00014878000080fa00be
:103e6400000006000000fa00003a80000080fa001a
:103e7400000006000200fa00faff0700000f7800b5
:103e84001e007800240007000004e0000200320055
:103e940000002800710007001e0078002a000700b7
:103ea4000004e00002003200000024006b00070060
:103eb4001e007800320007000004e0000200320017
:103ec40000202000650007001e0078003a0007006b
:103ed4000004e00002003200000820005f00070038
:103ee4001e007800420007000004e00002003200d7
:103ef40000042000590007001e0078004a00070053
:103f04000004e0000200320000012000530007001a
:103f14000080fa00000006000400fa001007980070
:103f24000040eb00004f78001e0090000000e0000d
:103f340002003d0010c0b300004f78001e4078001e
:103f44000080fa00000006000400fa001007980040
:103f54000040eb00004f78009e0090000000240019
:103f6400008060000000e0000200320010c0b300d6
:103f7400004f78001e4078000080fa000000060020
:103f84000400fa00100798000040eb00004f78008e
:103f94009e00900000202000008060000000e000ef
:103fa4000200320010c0b300004f78001e407800b9
:103fb4000080fa00000006000400fa0010079800d0
:103fc4000040eb00004f78009e00900000082000a5
:103fd400008060000000e0000200320010c0b30066
:103fe400004f78001e4078000080fa0000000600b0
:103ff4000400fa00100798000040eb00004f78001e
:104004009e00900000042000008060000000e0009a
:104014000200320010c0b300004f78001e40780048
:104024000080fa00000006000400fa00100798005f
:104034000040eb00004f78001e009000700060000c
:104044000000e0000200320010c0b300004f78000e
:104054001e4078000080fa00000006000200fa000a
:10406400000f78009e80ea00003a80000080600023
:10407400003a88000080fa00000006000000fa0000
:104084004027ef000080fa00000006000000fa005c
:1040940021088000f0fc2f00008060000050a00088
:1040a40020088800a03a20001008880001428000ff
:1040b400f0ff28000080600000c0a00000428800db
:1040c4002068a8000068a90005e1a8000080fa00a3
:1040d400000006000000fa0020012100900090007a
:1040e40020019000b0019000100078000080fa00d8
:1040f400000006000200fa00000f780020012100f1
:10410400100278009002900020039000b003900009
:104114001e007800d000900060019000f001900033
:10412400400090000000520081805a0002015b00b0
:1041340083815b000080fa00000006000a00fa0098
:10414400000f780014079800250798003607980098
:10415400470798001e0078001e029000ae029000ef
:104164003e039000ce0390000498be000690be006b
:104174000080fa00000006000a00fa0040079800d8
:10418400200121001002780090029000200390008a
:10419400b0039000049fbe000697be004e0090003e
:1041a4001e0278009e0290002e039000be03900031
:1041b4004400980055009800660098007700980025
:1041c4000080fa00000006000c00fa00889fbe0080
:1041d4008a9fbe00400798005107980020012100e3
:1041e400100278009002900020039000b003900029
:1041f400049fbe000697be004e009000400490004d
:10420400d004900060059000f00590004e009000ee
:104214009000900020019000b00190001000780000
:104224000002440081824c0002034d0083834d0050
:104234001e0078009e0090002e019000be019000a8
:104244000020e10001a8e10002b0e10003b8e100b0
:104254000e003e005e0090000000e0000900320005
:104264004e0090001e0278009e0290002e039000e3
:10427400be03900044009800550098006600980022
:104284007700980010002000010037000000eb00c8
:104294004f05be004f04be000080fa000000060077
:1042a4000000fa00642c2200832a2200c227220084
:1042b400d1c0b30040022100c4fd0700851e2100c7
:1042c400c4172100e3ff200012c0b300d1c0b30023
:1042d400800f2100a2f10700840c200005002000bb
:1042e4006033b8004038210094ff07000080fa00d2
:1042f400000006000600fa008000eb00800f210099
:1043040088f407000000e000160032000000eb0013
:10431400000f780040002000000f78000b003700e9
:104324009e007800800f210041f207008000780091
:104334001e00780000407800010178008040780079
:104344004002210061fe07001e0fe8001e007800f5
:10435400e80f5000f2ff340041c0b30040022100d6
:1043640073fe070011002000800f21006df4070088
:104374000000e000230032000000eb00100798006a
:104384001000200020079800140037002e00900031
:10439400e700b9000000e80080007800800f2100e9
:1043a4002cf207000000e000090032002e0090000b
:1043b400e700b9000000e80080007800800f2100c9
:1043c40024f207009e00900001007000100798007e
:1043d4002e0090000000e800200798002e009000b6
:1043e400ed0f5000e9ff34001e01900081c0b300be
:1043f4004002210035fe070041c0b3004002210005
:104404004bfe070040022100c2fd07000000e0004f
:104414001600320011002000403821006aff070016
:104424000000e0001100320081c0b300400221000e
:1044340092fd070000017800c1052000800f2100d3
:10444400e1f5070091c0b300400221008bfd070095
:1044540000017800d1052000800f2100daf5070063
:10446400f1012000800f2100edf507000080fa0023
:10447400000006000000fa0000602100a9fb07000c
:1044840040652100a7fb07002062a900f00020007e
:104494004011880023a2a8000188a9002188a8004f
:1044a4000168a9002168a80021e2a8002342a8000d
:1044b4000080fa00000006000200fa00004f7800b5
:1044c4009e4078004065210085fc070022d0bf0093
:1044d4000004e000050032002270ef004065210076
:1044e40008fc07000080fb00201188000080fa000f
:1044f400000006000200fa00004f78002188a9009d
:104504009e4078004065210075fc070022d0bf0062
:104514000004e000050032002270ef004065210035
:10452400f8fb07000080fb00201188002188a80008
:104534000080fa00000006000000fa00006021007c
:1045440029fc07000080fa00000006000000fa00c1
:1045540000602100ebfb07000080fa000000060069
:104564000000fa000060210090fb07000080fa00c0
:10457400000006000000fa00006021000efd0700a4
:104584000080fa00000006000000fa0040652100e7
:1045940086fb07000080fa00000006000000fa0015
:1045a4004065210004fd07000080fa0000000600b9
:1045b4000000fa000188a9000168a9002188a80068
:1045c4002168a80021e2a8002342a8000080fa0084
:1045d400000006000000fa000188a9000168a90093
:1045e4002188a9002168a90021e2a9002342a90089
:1045f4000080fa00000006000000fa0001118000ab
:1046040000002800008060000000e000020032008a
:1046140010c0b300010037000040eb000080fa0036
:10462400000006000000fa00000220000058880084
:104634002002200010588800062bef000000210003
:10464400205888000a2bef00082bef000c2bef00fa
:1046540070002000705888000088a9002088a800f5
:1046640000022200805888006004200090588800ce
:10467400162bef0000002100a05888001a2bef0031
:10468400182bef001c2bef0070002000f05888005e
:1046940001c8a90021c8a800202bef00222bef009d
:1046a400262bef0000002100205988002a2bef0060
:1046b400282bef002c2bef002e2bef000308a90072
:1046c400302bef00322bef00362bef0000002100df
:1046d400a05988003a2bef00382bef003c2bef0059
:1046e4003e2bef000488a9000080fa0000000600b9
:1046f4000000fa000080fa00000006000000fa0042
:104704000080fa00000006000000fa000080fa00b1
:10471400000006000000fa00114080000010200094
:10472400008060000000e00002003200f6ff070095
:104734000308a9000080fa00000006000000fa0047
:104744000080fa00000006000000fa00204080000b
:10475400700060000000e00002003200f7ff070074
:104764000488a9000080fa00000006000000fa0096
:10477400042eef00142eef00242eef007079200099
:10478400007088000080eb0080708800e03b20000f
:10479400007188000c2eef001c2eef002c2eef0071
:1047a4000a2eef001a2eef002a2eef00062eef003d
:1047b400162eef00262eef00b02120007070880026
:1047c400f0382000f0708800d00320007071880059
:1047d400113a8000f00b200000816000600420008a
:1047e40071052000237420008049780081497800f5
:1047f400824978002136800000f82f008080600014
:10480400100320000100700020368800a1368000cb
:1048140000f82f0080806000600320000100700019
:10482400a03688005134800000fc2f000080600016
:104834000000a0005034880061348000f00f2c0088
:104844008080600000e02000010070006034880077
:104854003136800000f82f00808060007003200053
:1048640001007000303688006134800000fc2f00a5
:10487400008060003000b30060348800103a80008b
:10488400000178000260a00060042000710520008f
:104894002374200080497800814978008249780097
:1048a4000080fa00000006000000fa000080fa0010
:1048b400000006000000fa000080fa000000060074
:1048c4000000fa000080fa00000006000000fa0070
:1048d4000080fa00000006000000fa000080fa00e0
:1048e400000006000000fa0068f607000080fa00e5
:1048f400000006000000fa0071f607000080fa00cc
:10490400000006000400fa00000f78001107980068
:104914001e009000800078001e00780075f60700e5
:104924000080fa00000006000200fa00000f780080
:104934001e007800a5f607000080fa0000000600bb
:104944000000fa00d5f607000080fa000000060017
:104954000000fa00ddf607000080fa0000000600ff
:104964000000fa00e5f607000080fa0000000600e7
:104974000000fa00edf607000080fa0000000600cf
:104984000000fa0006f707000080fa0000000600a5
:104994000a00fa0030079800014f9800c0c8b3001d
:1049a400404798000040eb00004f78000040eb00c7
:1049b40010479800220037001e4090000080fb0042
:1049c400be0090000080400090407800214798008d
:1049d4000040eb0030479800130037002e40900051
:1049e4001e40680061406000504798001e80fb0034
:1049f4000000d100004f78005e4090000004e00009
:104a0400020032004e4090001e4f68002e4090007d
:104a14000080fb000000d100204798003e40900039
:104a24000040e800304798003e409000e74f5000b7
:104a3400eaff36001e4090000040e800104798004e
:104a44009e4090000e48900080cf5000daff39005d
:104a54001e4078000080fa00000006000000fa0002
:104a640031428000f08f2f00008060000080a000a1
:104a7400304288001142800080ff2f0000806000d7
:104a84000000a0001042880081428000f0ff28004e
:104a94000080600000c0a0008042880011438000b4
:104aa400f08f2f00008060000080a0001043880079
:104ab40081428000f08f2f00008060000080a00001
:104ac4008042880001438000f0f82f0000806000dd
:104ad4000040a000004388003142800080ff2f0086
:104ae400008060000000a000304288002142800065
:104af400f0ff28000080600000c0a0002042880071
:104b04000080fa00000006000000fa00c001230043
:104b1400203a88004827ef004e27ef004009200084
:104b2400303a88006027ef006227ef006427ef0027
:104b34006627ef006a27ef006c27ef0032002000a1
:104b440080072000a10920003374200080497800e8
:104b54008149780082497800120020006004200016
:104b64007105200023742000804978008149780071
:104b74008249780000000000103a80006100600063
:104b84000000e000fcff3a0000000000113a800041
:104b940000022000008060000000e000fbff320003
:084ba4000080fa000000060089
:020000040000fa
:104bac001e10000002000000800000000010000039
:104bbc0012000000800000001a1000000400000029
:104bcc0080000000001400000002000080000000c3
:104bdc009413000020000000800000002010000052
:104bec000200000082000000ffff00001210000015
:104bfc00080000008000000000160000a800000063
:104c0c008000000022100000020000008200000062
:104c1c000100000024100000700300008000000060
:044c2c000000000084
:020000040000fa
:104c30000200fa00000f780021028000200f2000ff
:104c4000008060001e007000200288000080fa00d2
:104c5000000006000000fa00c3e8a8000000000001
:104c6000000000000080fa00000006000000fa00ca
:104c7000bffe07007aff0700a4ff07006afe0700d7
:104c8000f4ff070000022000e9ff07000080fa009f
:104c9000000006000000fa009cff07000080fa00f8
:104ca000000006000000fa00003a80000080fa00d0
:104cb000000006000000fa006ffc07000080fa0008
:104cc000000006000000fa00edfc07000080fa007a
:104cd00000000600000f78009e0078000181880027
:104ce000ffff37000000fa004039210080077800fc
:104cf000c03a2100000188000080fa000000060090
:104d00000000fa00d9ff0700e1fc0700dafd070008
:104d10005ff507006bf507000080fa000000060051
:104d20000000fa00f6ff070073fd0700feff3700e2
:020000040000fa
:02000004000af0
:04afe000ceff0000a0
:020000040000fa
:02000004000af0
:04afe400ffff00006b
:020000040000fa
:02000004000af0
:04afe8007fff0000e7
:020000040000fa
:02000004000af0
:04afec007aff0000e8
:020000040000fa
:02000004000af0
:04aff000f8ff000066
:020000040000fa
:02000004000af0
:04aff400ffff00005b
:00000001FF
